{
  "_format": "hh-sol-artifact-1",
  "contractName": "ChargeStationFinder",
  "sourceName": "contracts/ChargeStationFinder.sol",
  "abi": [
    {
      "inputs": [],
      "stateMutability": "nonpayable",
      "type": "constructor"
    },
    {
      "inputs": [
        {
          "internalType": "string",
          "name": "",
          "type": "string"
        }
      ],
      "name": "CarExist",
      "outputs": [
        {
          "internalType": "bool",
          "name": "",
          "type": "bool"
        }
      ],
      "stateMutability": "view",
      "type": "function"
    },
    {
      "inputs": [
        {
          "internalType": "string",
          "name": "",
          "type": "string"
        }
      ],
      "name": "StationExist",
      "outputs": [
        {
          "internalType": "bool",
          "name": "",
          "type": "bool"
        }
      ],
      "stateMutability": "view",
      "type": "function"
    },
    {
      "inputs": [
        {
          "internalType": "string",
          "name": "_email",
          "type": "string"
        },
        {
          "internalType": "string",
          "name": "_password",
          "type": "string"
        },
        {
          "internalType": "address",
          "name": "_address",
          "type": "address"
        }
      ],
      "name": "accessAdminPage",
      "outputs": [
        {
          "internalType": "string",
          "name": "",
          "type": "string"
        }
      ],
      "stateMutability": "view",
      "type": "function"
    },
    {
      "inputs": [
        {
          "internalType": "address",
          "name": "",
          "type": "address"
        }
      ],
      "name": "accountChecked",
      "outputs": [
        {
          "internalType": "bool",
          "name": "",
          "type": "bool"
        }
      ],
      "stateMutability": "view",
      "type": "function"
    },
    {
      "inputs": [
        {
          "internalType": "string",
          "name": "_matricule",
          "type": "string"
        },
        {
          "internalType": "string",
          "name": "_brand",
          "type": "string"
        },
        {
          "internalType": "string",
          "name": "_model",
          "type": "string"
        }
      ],
      "name": "addCar",
      "outputs": [],
      "stateMutability": "nonpayable",
      "type": "function"
    },
    {
      "inputs": [
        {
          "internalType": "string",
          "name": "_name",
          "type": "string"
        },
        {
          "internalType": "string",
          "name": "_posstation",
          "type": "string"
        },
        {
          "internalType": "uint256",
          "name": "_nbrborne",
          "type": "uint256"
        }
      ],
      "name": "addStation",
      "outputs": [],
      "stateMutability": "nonpayable",
      "type": "function"
    },
    {
      "inputs": [
        {
          "internalType": "string",
          "name": "_email",
          "type": "string"
        },
        {
          "internalType": "string",
          "name": "_password",
          "type": "string"
        },
        {
          "internalType": "address",
          "name": "_address",
          "type": "address"
        }
      ],
      "name": "authenticate",
      "outputs": [
        {
          "internalType": "bool",
          "name": "",
          "type": "bool"
        }
      ],
      "stateMutability": "view",
      "type": "function"
    },
    {
      "inputs": [
        {
          "internalType": "uint256",
          "name": "",
          "type": "uint256"
        }
      ],
      "name": "cars",
      "outputs": [
        {
          "internalType": "string",
          "name": "matricule",
          "type": "string"
        },
        {
          "internalType": "string",
          "name": "brand",
          "type": "string"
        },
        {
          "internalType": "string",
          "name": "model",
          "type": "string"
        },
        {
          "internalType": "address",
          "name": "owner",
          "type": "address"
        }
      ],
      "stateMutability": "view",
      "type": "function"
    },
    {
      "inputs": [
        {
          "internalType": "address",
          "name": "account",
          "type": "address"
        }
      ],
      "name": "clearStationsByAccount",
      "outputs": [],
      "stateMutability": "nonpayable",
      "type": "function"
    },
    {
      "inputs": [
        {
          "internalType": "string",
          "name": "_matricule",
          "type": "string"
        }
      ],
      "name": "deleteCarByMatricule",
      "outputs": [],
      "stateMutability": "nonpayable",
      "type": "function"
    },
    {
      "inputs": [
        {
          "internalType": "string",
          "name": "_name",
          "type": "string"
        }
      ],
      "name": "deleteStationByName",
      "outputs": [],
      "stateMutability": "nonpayable",
      "type": "function"
    },
    {
      "inputs": [
        {
          "internalType": "address",
          "name": "_account",
          "type": "address"
        }
      ],
      "name": "getCarsByAccount",
      "outputs": [
        {
          "components": [
            {
              "internalType": "string",
              "name": "matricule",
              "type": "string"
            },
            {
              "internalType": "string",
              "name": "brand",
              "type": "string"
            },
            {
              "internalType": "string",
              "name": "model",
              "type": "string"
            },
            {
              "internalType": "address",
              "name": "owner",
              "type": "address"
            }
          ],
          "internalType": "struct ChargeStationFinder.Car[]",
          "name": "",
          "type": "tuple[]"
        }
      ],
      "stateMutability": "view",
      "type": "function"
    },
    {
      "inputs": [
        {
          "internalType": "address",
          "name": "_account",
          "type": "address"
        }
      ],
      "name": "getStationsByAccount",
      "outputs": [
        {
          "components": [
            {
              "internalType": "string",
              "name": "name",
              "type": "string"
            },
            {
              "internalType": "string",
              "name": "posstation",
              "type": "string"
            },
            {
              "internalType": "uint256",
              "name": "nbrborne",
              "type": "uint256"
            },
            {
              "internalType": "address",
              "name": "owner",
              "type": "address"
            }
          ],
          "internalType": "struct ChargeStationFinder.Station[]",
          "name": "",
          "type": "tuple[]"
        }
      ],
      "stateMutability": "view",
      "type": "function"
    },
    {
      "inputs": [],
      "name": "isCheckboxChecked",
      "outputs": [
        {
          "internalType": "bool",
          "name": "",
          "type": "bool"
        }
      ],
      "stateMutability": "view",
      "type": "function"
    },
    {
      "inputs": [],
      "name": "listeCars",
      "outputs": [
        {
          "components": [
            {
              "internalType": "string",
              "name": "matricule",
              "type": "string"
            },
            {
              "internalType": "string",
              "name": "brand",
              "type": "string"
            },
            {
              "internalType": "string",
              "name": "model",
              "type": "string"
            },
            {
              "internalType": "address",
              "name": "owner",
              "type": "address"
            }
          ],
          "internalType": "struct ChargeStationFinder.Car[]",
          "name": "",
          "type": "tuple[]"
        }
      ],
      "stateMutability": "view",
      "type": "function"
    },
    {
      "inputs": [],
      "name": "listeStations",
      "outputs": [
        {
          "components": [
            {
              "internalType": "string",
              "name": "name",
              "type": "string"
            },
            {
              "internalType": "string",
              "name": "posstation",
              "type": "string"
            },
            {
              "internalType": "uint256",
              "name": "nbrborne",
              "type": "uint256"
            },
            {
              "internalType": "address",
              "name": "owner",
              "type": "address"
            }
          ],
          "internalType": "struct ChargeStationFinder.Station[]",
          "name": "",
          "type": "tuple[]"
        }
      ],
      "stateMutability": "view",
      "type": "function"
    },
    {
      "inputs": [],
      "name": "owner",
      "outputs": [
        {
          "internalType": "address",
          "name": "",
          "type": "address"
        }
      ],
      "stateMutability": "view",
      "type": "function"
    },
    {
      "inputs": [
        {
          "internalType": "uint256",
          "name": "",
          "type": "uint256"
        }
      ],
      "name": "stations",
      "outputs": [
        {
          "internalType": "string",
          "name": "name",
          "type": "string"
        },
        {
          "internalType": "string",
          "name": "posstation",
          "type": "string"
        },
        {
          "internalType": "uint256",
          "name": "nbrborne",
          "type": "uint256"
        },
        {
          "internalType": "address",
          "name": "owner",
          "type": "address"
        }
      ],
      "stateMutability": "view",
      "type": "function"
    },
    {
      "inputs": [],
      "name": "toggleCheckbox",
      "outputs": [],
      "stateMutability": "nonpayable",
      "type": "function"
    }
  ],
  "bytecode": "0x60806040526040518060400160405280600f81526020017f73616d656840676d61696c2e636f6d0000000000000000000000000000000000815250600090816200004a919062000399565b506040516020016200005c90620004db565b6040516020818303038152906040528051906020012060015573577d1aad3f73923dd313a1a41dda9a3f5dacdf64600260006101000a81548173ffffffffffffffffffffffffffffffffffffffff021916908373ffffffffffffffffffffffffffffffffffffffff160217905550348015620000d757600080fd5b5033600760006101000a81548173ffffffffffffffffffffffffffffffffffffffff021916908373ffffffffffffffffffffffffffffffffffffffff160217905550620004f2565b600081519050919050565b7f4e487b7100000000000000000000000000000000000000000000000000000000600052604160045260246000fd5b7f4e487b7100000000000000000000000000000000000000000000000000000000600052602260045260246000fd5b60006002820490506001821680620001a157607f821691505b602082108103620001b757620001b662000159565b5b50919050565b60008190508160005260206000209050919050565b60006020601f8301049050919050565b600082821b905092915050565b600060088302620002217fffffffffffffffffffffffffffffffffffffffffffffffffffffffffffffffff82620001e2565b6200022d8683620001e2565b95508019841693508086168417925050509392505050565b6000819050919050565b6000819050919050565b60006200027a620002746200026e8462000245565b6200024f565b62000245565b9050919050565b6000819050919050565b620002968362000259565b620002ae620002a58262000281565b848454620001ef565b825550505050565b600090565b620002c5620002b6565b620002d28184846200028b565b505050565b5b81811015620002fa57620002ee600082620002bb565b600181019050620002d8565b5050565b601f82111562000349576200031381620001bd565b6200031e84620001d2565b810160208510156200032e578190505b620003466200033d85620001d2565b830182620002d7565b50505b505050565b600082821c905092915050565b60006200036e600019846008026200034e565b1980831691505092915050565b60006200038983836200035b565b9150826002028217905092915050565b620003a4826200011f565b67ffffffffffffffff811115620003c057620003bf6200012a565b5b620003cc825462000188565b620003d9828285620002fe565b600060209050601f831160018114620004115760008415620003fc578287015190505b6200040885826200037b565b86555062000478565b601f1984166200042186620001bd565b60005b828110156200044b5784890151825560018201915060208501945060208101905062000424565b868310156200046b578489015162000467601f8916826200035b565b8355505b6001600288020188555050505b505050505050565b600081905092915050565b7f3132333435363738390000000000000000000000000000000000000000000000600082015250565b6000620004c360098362000480565b9150620004d0826200048b565b600982019050919050565b6000620004e882620004b4565b9150819050919050565b6139d180620005026000396000f3fe608060405234801561001057600080fd5b50600436106101215760003560e01c80638bec1798116100ad578063cff9e1f911610071578063cff9e1f9146102f7578063dc6dfb4014610327578063e4608ea614610357578063ea239d3414610387578063f7746e36146103b757610121565b80638bec17981461023c5780638da5cb5b1461025a57806392f859db14610278578063ac3c7f65146102ab578063c47c33ea146102c757610121565b80636c1f8783116100f45780636c1f8783146101c05780637086a931146101dc5780637ac1d8df146101e65780637d48810d146102025780637df8aa901461021e57610121565b80632ba3688a1461012657806337851a761461014457806353d4ad5e14610160578063624ffdea14610190575b600080fd5b61012e6103ea565b60405161013b91906129d5565b60405180910390f35b61015e60048036038101906101599190612b40565b610655565b005b61017a60048036038101906101759190612bb5565b61097e565b60405161018791906129d5565b60405180910390f35b6101aa60048036038101906101a59190612be2565b610d86565b6040516101b79190612cb7565b60405180910390f35b6101da60048036038101906101d59190612bb5565b610eec565b005b6101e461131d565b005b61020060048036038101906101fb9190612cd9565b611551565b005b61021c60048036038101906102179190612b40565b6116ec565b005b610226611a28565b6040516102339190612d9b565b60405180910390f35b610244611a7c565b6040516102519190612efb565b60405180910390f35b610262611c5f565b60405161026f9190612f2c565b60405180910390f35b610292600480360381019061028d9190612f73565b611c85565b6040516102a29493929190612faf565b60405180910390f35b6102c560048036038101906102c09190613002565b611df5565b005b6102e160048036038101906102dc9190612be2565b611f84565b6040516102ee9190612d9b565b60405180910390f35b610311600480360381019061030c9190612b40565b61206a565b60405161031e9190612d9b565b60405180910390f35b610341600480360381019061033c9190612bb5565b6120a0565b60405161034e9190612d9b565b60405180910390f35b610371600480360381019061036c9190612b40565b6120c0565b60405161037e9190612d9b565b60405180910390f35b6103a1600480360381019061039c9190612bb5565b6120f6565b6040516103ae9190612efb565b60405180910390f35b6103d160048036038101906103cc9190612f73565b612476565b6040516103e1949392919061308d565b60405180910390f35b60606003805480602002602001604051908101604052809291908181526020016000905b8282101561064c578382906000526020600020906004020160405180608001604052908160008201805461044190613116565b80601f016020809104026020016040519081016040528092919081815260200182805461046d90613116565b80156104ba5780601f1061048f576101008083540402835291602001916104ba565b820191906000526020600020905b81548152906001019060200180831161049d57829003601f168201915b505050505081526020016001820180546104d390613116565b80601f01602080910402602001604051908101604052809291908181526020018280546104ff90613116565b801561054c5780601f106105215761010080835404028352916020019161054c565b820191906000526020600020905b81548152906001019060200180831161052f57829003601f168201915b5050505050815260200160028201805461056590613116565b80601f016020809104026020016040519081016040528092919081815260200182805461059190613116565b80156105de5780601f106105b3576101008083540402835291602001916105de565b820191906000526020600020905b8154815290600101906020018083116105c157829003601f168201915b505050505081526020016003820160009054906101000a900473ffffffffffffffffffffffffffffffffffffffff1673ffffffffffffffffffffffffffffffffffffffff1673ffffffffffffffffffffffffffffffffffffffff16815250508152602001906001019061040e565b50505050905090565b6006816040516106659190613183565b908152602001604051809103902060009054906101000a900460ff166106c0576040517f08c379a00000000000000000000000000000000000000000000000000000000081526004016106b7906131e6565b60405180910390fd5b60005b60048054905081101561097a57816040516020016106e19190613183565b604051602081830303815290604052805190602001206004828154811061070b5761070a613206565b5b906000526020600020906004020160000160405160200161072c91906132cd565b604051602081830303815290604052805190602001201480156107bf57503373ffffffffffffffffffffffffffffffffffffffff166004828154811061077557610774613206565b5b906000526020600020906004020160030160009054906101000a900473ffffffffffffffffffffffffffffffffffffffff1673ffffffffffffffffffffffffffffffffffffffff16145b1561096d57600460016004805490506107d89190613313565b815481106107e9576107e8613206565b5b90600052602060002090600402016004828154811061080b5761080a613206565b5b90600052602060002090600402016000820181600001908161082d91906134f4565b506001820181600101908161084291906134f4565b50600282015481600201556003820160009054906101000a900473ffffffffffffffffffffffffffffffffffffffff168160030160006101000a81548173ffffffffffffffffffffffffffffffffffffffff021916908373ffffffffffffffffffffffffffffffffffffffff16021790555090505060048054806108c9576108c86135dc565b5b6001900381819060005260206000209060040201600080820160006108ee919061266e565b6001820160006108fe919061266e565b60028201600090556003820160006101000a81549073ffffffffffffffffffffffffffffffffffffffff02191690555050905560006006836040516109439190613183565b908152602001604051809103902060006101000a81548160ff02191690831515021790555061097a565b80806001019150506106c3565b5050565b60606000805b600380549050811015610a25578373ffffffffffffffffffffffffffffffffffffffff16600382815481106109bc576109bb613206565b5b906000526020600020906004020160030160009054906101000a900473ffffffffffffffffffffffffffffffffffffffff1673ffffffffffffffffffffffffffffffffffffffff1603610a18578180610a149061360b565b9250505b8080600101915050610984565b5060008167ffffffffffffffff811115610a4257610a41612a15565b5b604051908082528060200260200182016040528015610a7b57816020015b610a686126ae565b815260200190600190039081610a605790505b5090506000805b600380549050811015610d7a578573ffffffffffffffffffffffffffffffffffffffff1660038281548110610aba57610ab9613206565b5b906000526020600020906004020160030160009054906101000a900473ffffffffffffffffffffffffffffffffffffffff1673ffffffffffffffffffffffffffffffffffffffff1603610d6d5760038181548110610b1b57610b1a613206565b5b9060005260206000209060040201604051806080016040529081600082018054610b4490613116565b80601f0160208091040260200160405190810160405280929190818152602001828054610b7090613116565b8015610bbd5780601f10610b9257610100808354040283529160200191610bbd565b820191906000526020600020905b815481529060010190602001808311610ba057829003601f168201915b50505050508152602001600182018054610bd690613116565b80601f0160208091040260200160405190810160405280929190818152602001828054610c0290613116565b8015610c4f5780601f10610c2457610100808354040283529160200191610c4f565b820191906000526020600020905b815481529060010190602001808311610c3257829003601f168201915b50505050508152602001600282018054610c6890613116565b80601f0160208091040260200160405190810160405280929190818152602001828054610c9490613116565b8015610ce15780601f10610cb657610100808354040283529160200191610ce1565b820191906000526020600020905b815481529060010190602001808311610cc457829003601f168201915b505050505081526020016003820160009054906101000a900473ffffffffffffffffffffffffffffffffffffffff1673ffffffffffffffffffffffffffffffffffffffff1673ffffffffffffffffffffffffffffffffffffffff1681525050838381518110610d5357610d52613206565b5b60200260200101819052508180610d699061360b565b9250505b8080600101915050610a82565b50819350505050919050565b6060600080604051602001610d9b91906132cd565b6040516020818303038152906040528051906020012085604051602001610dc29190613183565b60405160208183030381529060405280519060200120148015610e0c575060015484604051602001610df49190613183565b60405160208183030381529060405280519060200120145b8015610e655750600260009054906101000a900473ffffffffffffffffffffffffffffffffffffffff1673ffffffffffffffffffffffffffffffffffffffff168373ffffffffffffffffffffffffffffffffffffffff16145b90508015610eab576040518060400160405280601e81526020017f41636365732061206c6120706167652061646d696e206175746f726973650000815250915050610ee5565b6040518060400160405280601781526020017f4964656e74696669616e747320696e636f7272656374730000000000000000008152509150505b9392505050565b8073ffffffffffffffffffffffffffffffffffffffff163373ffffffffffffffffffffffffffffffffffffffff1614610f5a576040517f08c379a0000000000000000000000000000000000000000000000000000000008152600401610f519061369f565b60405180910390fd5b600060048054905067ffffffffffffffff811115610f7b57610f7a612a15565b5b604051908082528060200260200182016040528015610fb457816020015b610fa16126ec565b815260200190600190039081610f995790505b5090506000805b60048054905081101561122b578373ffffffffffffffffffffffffffffffffffffffff1660048281548110610ff357610ff2613206565b5b906000526020600020906004020160030160009054906101000a900473ffffffffffffffffffffffffffffffffffffffff1673ffffffffffffffffffffffffffffffffffffffff161461121e576004818154811061105457611053613206565b5b906000526020600020906004020160405180608001604052908160008201805461107d90613116565b80601f01602080910402602001604051908101604052809291908181526020018280546110a990613116565b80156110f65780601f106110cb576101008083540402835291602001916110f6565b820191906000526020600020905b8154815290600101906020018083116110d957829003601f168201915b5050505050815260200160018201805461110f90613116565b80601f016020809104026020016040519081016040528092919081815260200182805461113b90613116565b80156111885780601f1061115d57610100808354040283529160200191611188565b820191906000526020600020905b81548152906001019060200180831161116b57829003601f168201915b50505050508152602001600282015481526020016003820160009054906101000a900473ffffffffffffffffffffffffffffffffffffffff1673ffffffffffffffffffffffffffffffffffffffff1673ffffffffffffffffffffffffffffffffffffffff168152505083838151811061120457611203613206565b5b6020026020010181905250818061121a9061360b565b9250505b8080600101915050610fbb565b506004600061123a919061272a565b60005b8181101561131757600483828151811061125a57611259613206565b5b6020026020010151908060018154018082558091505060019003906000526020600020906004020160009091909190915060008201518160000190816112a091906136bf565b5060208201518160010190816112b691906136bf565b506040820151816002015560608201518160030160006101000a81548173ffffffffffffffffffffffffffffffffffffffff021916908373ffffffffffffffffffffffffffffffffffffffff1602179055505050808060010191505061123d565b50505050565b6000600860003373ffffffffffffffffffffffffffffffffffffffff1673ffffffffffffffffffffffffffffffffffffffff16815260200190815260200160002060009054906101000a900460ff1690508015600860003373ffffffffffffffffffffffffffffffffffffffff1673ffffffffffffffffffffffffffffffffffffffff16815260200190815260200160002060006101000a81548160ff02191690831515021790555060005b60048054905081101561154d573373ffffffffffffffffffffffffffffffffffffffff166004828154811061140157611400613206565b5b906000526020600020906004020160030160009054906101000a900473ffffffffffffffffffffffffffffffffffffffff1673ffffffffffffffffffffffffffffffffffffffff160361154057816114fd5760006004828154811061146957611468613206565b5b906000526020600020906004020160020154116114bb576040517f08c379a00000000000000000000000000000000000000000000000000000000081526004016114b290613803565b60405180910390fd5b6001600482815481106114d1576114d0613206565b5b906000526020600020906004020160020160008282546114f19190613313565b9250508190555061153b565b60016004828154811061151357611512613206565b5b906000526020600020906004020160020160008282546115339190613823565b925050819055505b61154d565b80806001019150506113c9565b5050565b6005836040516115619190613183565b908152602001604051809103902060009054906101000a900460ff16156115bd576040517f08c379a00000000000000000000000000000000000000000000000000000000081526004016115b4906138a3565b60405180910390fd5b600060405180608001604052808581526020018481526020018381526020013373ffffffffffffffffffffffffffffffffffffffff1681525090506003819080600181540180825580915050600190039060005260206000209060040201600090919091909150600082015181600001908161163991906136bf565b50602082015181600101908161164f91906136bf565b50604082015181600201908161166591906136bf565b5060608201518160030160006101000a81548173ffffffffffffffffffffffffffffffffffffffff021916908373ffffffffffffffffffffffffffffffffffffffff160217905550505060016005856040516116c19190613183565b908152602001604051809103902060006101000a81548160ff02191690831515021790555050505050565b6005816040516116fc9190613183565b908152602001604051809103902060009054906101000a900460ff16611757576040517f08c379a000000000000000000000000000000000000000000000000000000000815260040161174e9061390f565b60405180910390fd5b60005b600380549050811015611a2457816040516020016117789190613183565b60405160208183030381529060405280519060200120600382815481106117a2576117a1613206565b5b90600052602060002090600402016000016040516020016117c391906132cd565b6040516020818303038152906040528051906020012014801561185657503373ffffffffffffffffffffffffffffffffffffffff166003828154811061180c5761180b613206565b5b906000526020600020906004020160030160009054906101000a900473ffffffffffffffffffffffffffffffffffffffff1673ffffffffffffffffffffffffffffffffffffffff16145b15611a17576003600160038054905061186f9190613313565b815481106118805761187f613206565b5b9060005260206000209060040201600382815481106118a2576118a1613206565b5b9060005260206000209060040201600082018160000190816118c491906134f4565b50600182018160010190816118d991906134f4565b50600282018160020190816118ee91906134f4565b506003820160009054906101000a900473ffffffffffffffffffffffffffffffffffffffff168160030160006101000a81548173ffffffffffffffffffffffffffffffffffffffff021916908373ffffffffffffffffffffffffffffffffffffffff160217905550905050600380548061196b5761196a6135dc565b5b600190038181906000526020600020906004020160008082016000611990919061266e565b6001820160006119a0919061266e565b6002820160006119b0919061266e565b6003820160006101000a81549073ffffffffffffffffffffffffffffffffffffffff02191690555050905560006005836040516119ed9190613183565b908152602001604051809103902060006101000a81548160ff021916908315150217905550611a24565b808060010191505061175a565b5050565b6000600860003373ffffffffffffffffffffffffffffffffffffffff1673ffffffffffffffffffffffffffffffffffffffff16815260200190815260200160002060009054906101000a900460ff16905090565b60606004805480602002602001604051908101604052809291908181526020016000905b82821015611c565783829060005260206000209060040201604051806080016040529081600082018054611ad390613116565b80601f0160208091040260200160405190810160405280929190818152602001828054611aff90613116565b8015611b4c5780601f10611b2157610100808354040283529160200191611b4c565b820191906000526020600020905b815481529060010190602001808311611b2f57829003601f168201915b50505050508152602001600182018054611b6590613116565b80601f0160208091040260200160405190810160405280929190818152602001828054611b9190613116565b8015611bde5780601f10611bb357610100808354040283529160200191611bde565b820191906000526020600020905b815481529060010190602001808311611bc157829003601f168201915b50505050508152602001600282015481526020016003820160009054906101000a900473ffffffffffffffffffffffffffffffffffffffff1673ffffffffffffffffffffffffffffffffffffffff1673ffffffffffffffffffffffffffffffffffffffff168152505081526020019060010190611aa0565b50505050905090565b600760009054906101000a900473ffffffffffffffffffffffffffffffffffffffff1681565b60048181548110611c9557600080fd5b9060005260206000209060040201600091509050806000018054611cb890613116565b80601f0160208091040260200160405190810160405280929190818152602001828054611ce490613116565b8015611d315780601f10611d0657610100808354040283529160200191611d31565b820191906000526020600020905b815481529060010190602001808311611d1457829003601f168201915b505050505090806001018054611d4690613116565b80601f0160208091040260200160405190810160405280929190818152602001828054611d7290613116565b8015611dbf5780601f10611d9457610100808354040283529160200191611dbf565b820191906000526020600020905b815481529060010190602001808311611da257829003601f168201915b5050505050908060020154908060030160009054906101000a900473ffffffffffffffffffffffffffffffffffffffff16905084565b600683604051611e059190613183565b908152602001604051809103902060009054906101000a900460ff1615611e61576040517f08c379a0000000000000000000000000000000000000000000000000000000008152600401611e589061397b565b60405180910390fd5b600060405180608001604052808581526020018481526020018381526020013373ffffffffffffffffffffffffffffffffffffffff16815250905060048190806001815401808255809150506001900390600052602060002090600402016000909190919091506000820151816000019081611edd91906136bf565b506020820151816001019081611ef391906136bf565b506040820151816002015560608201518160030160006101000a81548173ffffffffffffffffffffffffffffffffffffffff021916908373ffffffffffffffffffffffffffffffffffffffff16021790555050506001600685604051611f599190613183565b908152602001604051809103902060006101000a81548160ff02191690831515021790555050505050565b600080604051602001611f9791906132cd565b6040516020818303038152906040528051906020012084604051602001611fbe9190613183565b60405160208183030381529060405280519060200120148015612008575060015483604051602001611ff09190613183565b60405160208183030381529060405280519060200120145b80156120615750600260009054906101000a900473ffffffffffffffffffffffffffffffffffffffff1673ffffffffffffffffffffffffffffffffffffffff168273ffffffffffffffffffffffffffffffffffffffff16145b90509392505050565b6006818051602081018201805184825260208301602085012081835280955050505050506000915054906101000a900460ff1681565b60086020528060005260406000206000915054906101000a900460ff1681565b6005818051602081018201805184825260208301602085012081835280955050505050506000915054906101000a900460ff1681565b60606000805b60048054905081101561219d578373ffffffffffffffffffffffffffffffffffffffff166004828154811061213457612133613206565b5b906000526020600020906004020160030160009054906101000a900473ffffffffffffffffffffffffffffffffffffffff1673ffffffffffffffffffffffffffffffffffffffff160361219057818061218c9061360b565b9250505b80806001019150506120fc565b5060008167ffffffffffffffff8111156121ba576121b9612a15565b5b6040519080825280602002602001820160405280156121f357816020015b6121e06126ec565b8152602001906001900390816121d85790505b5090506000805b60048054905081101561246a578573ffffffffffffffffffffffffffffffffffffffff166004828154811061223257612231613206565b5b906000526020600020906004020160030160009054906101000a900473ffffffffffffffffffffffffffffffffffffffff1673ffffffffffffffffffffffffffffffffffffffff160361245d576004818154811061229357612292613206565b5b90600052602060002090600402016040518060800160405290816000820180546122bc90613116565b80601f01602080910402602001604051908101604052809291908181526020018280546122e890613116565b80156123355780601f1061230a57610100808354040283529160200191612335565b820191906000526020600020905b81548152906001019060200180831161231857829003601f168201915b5050505050815260200160018201805461234e90613116565b80601f016020809104026020016040519081016040528092919081815260200182805461237a90613116565b80156123c75780601f1061239c576101008083540402835291602001916123c7565b820191906000526020600020905b8154815290600101906020018083116123aa57829003601f168201915b50505050508152602001600282015481526020016003820160009054906101000a900473ffffffffffffffffffffffffffffffffffffffff1673ffffffffffffffffffffffffffffffffffffffff1673ffffffffffffffffffffffffffffffffffffffff168152505083838151811061244357612442613206565b5b602002602001018190525081806124599061360b565b9250505b80806001019150506121fa565b50819350505050919050565b6003818154811061248657600080fd5b90600052602060002090600402016000915090508060000180546124a990613116565b80601f01602080910402602001604051908101604052809291908181526020018280546124d590613116565b80156125225780601f106124f757610100808354040283529160200191612522565b820191906000526020600020905b81548152906001019060200180831161250557829003601f168201915b50505050509080600101805461253790613116565b80601f016020809104026020016040519081016040528092919081815260200182805461256390613116565b80156125b05780601f10612585576101008083540402835291602001916125b0565b820191906000526020600020905b81548152906001019060200180831161259357829003601f168201915b5050505050908060020180546125c590613116565b80601f01602080910402602001604051908101604052809291908181526020018280546125f190613116565b801561263e5780601f106126135761010080835404028352916020019161263e565b820191906000526020600020905b81548152906001019060200180831161262157829003601f168201915b5050505050908060030160009054906101000a900473ffffffffffffffffffffffffffffffffffffffff16905084565b50805461267a90613116565b6000825580601f1061268c57506126ab565b601f0160209004906000526020600020908101906126aa919061274e565b5b50565b6040518060800160405280606081526020016060815260200160608152602001600073ffffffffffffffffffffffffffffffffffffffff1681525090565b6040518060800160405280606081526020016060815260200160008152602001600073ffffffffffffffffffffffffffffffffffffffff1681525090565b508054600082556004029060005260206000209081019061274b919061276b565b50565b5b8082111561276757600081600090555060010161274f565b5090565b5b808211156127cd5760008082016000612785919061266e565b600182016000612795919061266e565b60028201600090556003820160006101000a81549073ffffffffffffffffffffffffffffffffffffffff02191690555060040161276c565b5090565b600081519050919050565b600082825260208201905092915050565b6000819050602082019050919050565b600081519050919050565b600082825260208201905092915050565b60005b8381101561283757808201518184015260208101905061281c565b60008484015250505050565b6000601f19601f8301169050919050565b600061285f826127fd565b6128698185612808565b9350612879818560208601612819565b61288281612843565b840191505092915050565b600073ffffffffffffffffffffffffffffffffffffffff82169050919050565b60006128b88261288d565b9050919050565b6128c8816128ad565b82525050565b600060808301600083015184820360008601526128eb8282612854565b915050602083015184820360208601526129058282612854565b9150506040830151848203604086015261291f8282612854565b915050606083015161293460608601826128bf565b508091505092915050565b600061294b83836128ce565b905092915050565b6000602082019050919050565b600061296b826127d1565b61297581856127dc565b935083602082028501612987856127ed565b8060005b858110156129c357848403895281516129a4858261293f565b94506129af83612953565b925060208a0199505060018101905061298b565b50829750879550505050505092915050565b600060208201905081810360008301526129ef8184612960565b905092915050565b6000604051905090565b600080fd5b600080fd5b600080fd5b600080fd5b7f4e487b7100000000000000000000000000000000000000000000000000000000600052604160045260246000fd5b612a4d82612843565b810181811067ffffffffffffffff82111715612a6c57612a6b612a15565b5b80604052505050565b6000612a7f6129f7565b9050612a8b8282612a44565b919050565b600067ffffffffffffffff821115612aab57612aaa612a15565b5b612ab482612843565b9050602081019050919050565b82818337600083830152505050565b6000612ae3612ade84612a90565b612a75565b905082815260208101848484011115612aff57612afe612a10565b5b612b0a848285612ac1565b509392505050565b600082601f830112612b2757612b26612a0b565b5b8135612b37848260208601612ad0565b91505092915050565b600060208284031215612b5657612b55612a01565b5b600082013567ffffffffffffffff811115612b7457612b73612a06565b5b612b8084828501612b12565b91505092915050565b612b92816128ad565b8114612b9d57600080fd5b50565b600081359050612baf81612b89565b92915050565b600060208284031215612bcb57612bca612a01565b5b6000612bd984828501612ba0565b91505092915050565b600080600060608486031215612bfb57612bfa612a01565b5b600084013567ffffffffffffffff811115612c1957612c18612a06565b5b612c2586828701612b12565b935050602084013567ffffffffffffffff811115612c4657612c45612a06565b5b612c5286828701612b12565b9250506040612c6386828701612ba0565b9150509250925092565b600082825260208201905092915050565b6000612c89826127fd565b612c938185612c6d565b9350612ca3818560208601612819565b612cac81612843565b840191505092915050565b60006020820190508181036000830152612cd18184612c7e565b905092915050565b600080600060608486031215612cf257612cf1612a01565b5b600084013567ffffffffffffffff811115612d1057612d0f612a06565b5b612d1c86828701612b12565b935050602084013567ffffffffffffffff811115612d3d57612d3c612a06565b5b612d4986828701612b12565b925050604084013567ffffffffffffffff811115612d6a57612d69612a06565b5b612d7686828701612b12565b9150509250925092565b60008115159050919050565b612d9581612d80565b82525050565b6000602082019050612db06000830184612d8c565b92915050565b600081519050919050565b600082825260208201905092915050565b6000819050602082019050919050565b6000819050919050565b612df581612de2565b82525050565b60006080830160008301518482036000860152612e188282612854565b91505060208301518482036020860152612e328282612854565b9150506040830151612e476040860182612dec565b506060830151612e5a60608601826128bf565b508091505092915050565b6000612e718383612dfb565b905092915050565b6000602082019050919050565b6000612e9182612db6565b612e9b8185612dc1565b935083602082028501612ead85612dd2565b8060005b85811015612ee95784840389528151612eca8582612e65565b9450612ed583612e79565b925060208a01995050600181019050612eb1565b50829750879550505050505092915050565b60006020820190508181036000830152612f158184612e86565b905092915050565b612f26816128ad565b82525050565b6000602082019050612f416000830184612f1d565b92915050565b612f5081612de2565b8114612f5b57600080fd5b50565b600081359050612f6d81612f47565b92915050565b600060208284031215612f8957612f88612a01565b5b6000612f9784828501612f5e565b91505092915050565b612fa981612de2565b82525050565b60006080820190508181036000830152612fc98187612c7e565b90508181036020830152612fdd8186612c7e565b9050612fec6040830185612fa0565b612ff96060830184612f1d565b95945050505050565b60008060006060848603121561301b5761301a612a01565b5b600084013567ffffffffffffffff81111561303957613038612a06565b5b61304586828701612b12565b935050602084013567ffffffffffffffff81111561306657613065612a06565b5b61307286828701612b12565b925050604061308386828701612f5e565b9150509250925092565b600060808201905081810360008301526130a78187612c7e565b905081810360208301526130bb8186612c7e565b905081810360408301526130cf8185612c7e565b90506130de6060830184612f1d565b95945050505050565b7f4e487b7100000000000000000000000000000000000000000000000000000000600052602260045260246000fd5b6000600282049050600182168061312e57607f821691505b602082108103613141576131406130e7565b5b50919050565b600081905092915050565b600061315d826127fd565b6131678185613147565b9350613177818560208601612819565b80840191505092915050565b600061318f8284613152565b915081905092915050565b7f4572726f723a2053746174696f6e20646f6573206e6f74206578697374000000600082015250565b60006131d0601d83612c6d565b91506131db8261319a565b602082019050919050565b600060208201905081810360008301526131ff816131c3565b9050919050565b7f4e487b7100000000000000000000000000000000000000000000000000000000600052603260045260246000fd5b60008190508160005260206000209050919050565b6000815461325781613116565b6132618186613147565b9450600182166000811461327c5760018114613291576132c4565b60ff19831686528115158202860193506132c4565b61329a85613235565b60005b838110156132bc5781548189015260018201915060208101905061329d565b838801955050505b50505092915050565b60006132d9828461324a565b915081905092915050565b7f4e487b7100000000000000000000000000000000000000000000000000000000600052601160045260246000fd5b600061331e82612de2565b915061332983612de2565b9250828203905081811115613341576133406132e4565b5b92915050565b60008154905061335681613116565b9050919050565b60006020601f8301049050919050565b600082821b905092915050565b6000600883026133aa7fffffffffffffffffffffffffffffffffffffffffffffffffffffffffffffffff8261336d565b6133b4868361336d565b95508019841693508086168417925050509392505050565b6000819050919050565b60006133f16133ec6133e784612de2565b6133cc565b612de2565b9050919050565b6000819050919050565b61340b836133d6565b61341f613417826133f8565b84845461337a565b825550505050565b600090565b613434613427565b61343f818484613402565b505050565b5b818110156134635761345860008261342c565b600181019050613445565b5050565b601f8211156134a85761347981613235565b6134828461335d565b81016020851015613491578190505b6134a561349d8561335d565b830182613444565b50505b505050565b600082821c905092915050565b60006134cb600019846008026134ad565b1980831691505092915050565b60006134e483836134ba565b9150826002028217905092915050565b8181036135025750506135da565b61350b82613347565b67ffffffffffffffff81111561352457613523612a15565b5b61352e8254613116565b613539828285613467565b6000601f8311600181146135685760008415613556578287015490505b61356085826134d8565b8655506135d3565b601f19841661357687613235565b965061358186613235565b60005b828110156135a957848901548255600182019150600185019450602081019050613584565b868310156135c657848901546135c2601f8916826134ba565b8355505b6001600288020188555050505b5050505050505b565b7f4e487b7100000000000000000000000000000000000000000000000000000000600052603160045260246000fd5b600061361682612de2565b91507fffffffffffffffffffffffffffffffffffffffffffffffffffffffffffffffff8203613648576136476132e4565b5b600182019050919050565b7f556e617574686f72697a65642061636365737300000000000000000000000000600082015250565b6000613689601383612c6d565b915061369482613653565b602082019050919050565b600060208201905081810360008301526136b88161367c565b9050919050565b6136c8826127fd565b67ffffffffffffffff8111156136e1576136e0612a15565b5b6136eb8254613116565b6136f6828285613467565b600060209050601f8311600181146137295760008415613717578287015190505b61372185826134d8565b865550613789565b601f19841661373786613235565b60005b8281101561375f5784890151825560018201915060208501945060208101905061373a565b8683101561377c5784890151613778601f8916826134ba565b8355505b6001600288020188555050505b505050505050565b7f4e6f20617661696c61626c65206368617267696e6720706f696e747320746f2060008201527f7265647563650000000000000000000000000000000000000000000000000000602082015250565b60006137ed602683612c6d565b91506137f882613791565b604082019050919050565b6000602082019050818103600083015261381c816137e0565b9050919050565b600061382e82612de2565b915061383983612de2565b9250828201905080821115613851576138506132e4565b5b92915050565b7f4572726f723a2043617220616c72656164792065786973747300000000000000600082015250565b600061388d601983612c6d565b915061389882613857565b602082019050919050565b600060208201905081810360008301526138bc81613880565b9050919050565b7f4572726f723a2043617220646f6573206e6f7420657869737400000000000000600082015250565b60006138f9601983612c6d565b9150613904826138c3565b602082019050919050565b60006020820190508181036000830152613928816138ec565b9050919050565b7f4572726f723a2053746174696f6e20616c726561647920657869737473000000600082015250565b6000613965601d83612c6d565b91506139708261392f565b602082019050919050565b6000602082019050818103600083015261399481613958565b905091905056fea26469706673582212207e90fc420b64e8bd2204b3a7ac479551a1cc0559e4b98c35c52c1330dfbce4c564736f6c63430008180033",
  "linkReferences": {},
  "deployedLinkReferences": {}
}